{
  "_format": "hh-sol-artifact-1",
  "contractName": "ArtsChain",
  "sourceName": "contracts/ArtsChain.sol",
  "abi": [
    {
      "inputs": [],
      "stateMutability": "nonpayable",
      "type": "constructor"
    },
    {
      "inputs": [
        {
          "internalType": "string",
          "name": "_title",
          "type": "string"
        },
        {
          "internalType": "string",
          "name": "_description",
          "type": "string"
        },
        {
          "internalType": "string",
          "name": "_imageUrl",
          "type": "string"
        },
        {
          "internalType": "string",
          "name": "_length",
          "type": "string"
        },
        {
          "internalType": "string",
          "name": "_width",
          "type": "string"
        }
      ],
      "name": "addartwork",
      "outputs": [],
      "stateMutability": "nonpayable",
      "type": "function"
    },
    {
      "inputs": [
        {
          "internalType": "address",
          "name": "_address",
          "type": "address"
        },
        {
          "internalType": "string",
          "name": "_title",
          "type": "string"
        },
        {
          "internalType": "string",
          "name": "_imageUrl",
          "type": "string"
        }
      ],
      "name": "generateID",
      "outputs": [
        {
          "internalType": "string",
          "name": "",
          "type": "string"
        }
      ],
      "stateMutability": "pure",
      "type": "function"
    },
    {
      "inputs": [
        {
          "internalType": "string",
          "name": "artworkId",
          "type": "string"
        }
      ],
      "name": "getArtWorkById",
      "outputs": [
        {
          "components": [
            {
              "internalType": "address",
              "name": "artist",
              "type": "address"
            },
            {
              "internalType": "address",
              "name": "owner",
              "type": "address"
            },
            {
              "internalType": "string",
              "name": "artistName",
              "type": "string"
            },
            {
              "internalType": "string",
              "name": "artworkId",
              "type": "string"
            },
            {
              "internalType": "string",
              "name": "title",
              "type": "string"
            },
            {
              "internalType": "string",
              "name": "description",
              "type": "string"
            },
            {
              "internalType": "string",
              "name": "imageUrl",
              "type": "string"
            },
            {
              "internalType": "uint256",
              "name": "timestamp",
              "type": "uint256"
            },
            {
              "internalType": "string",
              "name": "state",
              "type": "string"
            },
            {
              "internalType": "string",
              "name": "length",
              "type": "string"
            },
            {
              "internalType": "string",
              "name": "width",
              "type": "string"
            }
          ],
          "internalType": "struct ArtsChain.Artwork",
          "name": "",
          "type": "tuple"
        }
      ],
      "stateMutability": "view",
      "type": "function"
    },
    {
      "inputs": [
        {
          "internalType": "string",
          "name": "artworkId",
          "type": "string"
        }
      ],
      "name": "getArtWorkByIdGen",
      "outputs": [
        {
          "components": [
            {
              "internalType": "address",
              "name": "artist",
              "type": "address"
            },
            {
              "internalType": "address",
              "name": "owner",
              "type": "address"
            },
            {
              "internalType": "string",
              "name": "artistName",
              "type": "string"
            },
            {
              "internalType": "string",
              "name": "artworkId",
              "type": "string"
            },
            {
              "internalType": "string",
              "name": "title",
              "type": "string"
            },
            {
              "internalType": "string",
              "name": "description",
              "type": "string"
            },
            {
              "internalType": "string",
              "name": "imageUrl",
              "type": "string"
            },
            {
              "internalType": "uint256",
              "name": "timestamp",
              "type": "uint256"
            },
            {
              "internalType": "string",
              "name": "state",
              "type": "string"
            },
            {
              "internalType": "string",
              "name": "length",
              "type": "string"
            },
            {
              "internalType": "string",
              "name": "width",
              "type": "string"
            }
          ],
          "internalType": "struct ArtsChain.Artwork",
          "name": "",
          "type": "tuple"
        }
      ],
      "stateMutability": "view",
      "type": "function"
    },
    {
      "inputs": [],
      "name": "getLastArtwork",
      "outputs": [
        {
          "components": [
            {
              "internalType": "address",
              "name": "artist",
              "type": "address"
            },
            {
              "internalType": "address",
              "name": "owner",
              "type": "address"
            },
            {
              "internalType": "string",
              "name": "artistName",
              "type": "string"
            },
            {
              "internalType": "string",
              "name": "artworkId",
              "type": "string"
            },
            {
              "internalType": "string",
              "name": "title",
              "type": "string"
            },
            {
              "internalType": "string",
              "name": "description",
              "type": "string"
            },
            {
              "internalType": "string",
              "name": "imageUrl",
              "type": "string"
            },
            {
              "internalType": "uint256",
              "name": "timestamp",
              "type": "uint256"
            },
            {
              "internalType": "string",
              "name": "state",
              "type": "string"
            },
            {
              "internalType": "string",
              "name": "length",
              "type": "string"
            },
            {
              "internalType": "string",
              "name": "width",
              "type": "string"
            }
          ],
          "internalType": "struct ArtsChain.Artwork",
          "name": "",
          "type": "tuple"
        }
      ],
      "stateMutability": "view",
      "type": "function"
    },
    {
      "inputs": [],
      "name": "getUserArtworks",
      "outputs": [
        {
          "components": [
            {
              "internalType": "address",
              "name": "artist",
              "type": "address"
            },
            {
              "internalType": "address",
              "name": "owner",
              "type": "address"
            },
            {
              "internalType": "string",
              "name": "artistName",
              "type": "string"
            },
            {
              "internalType": "string",
              "name": "artworkId",
              "type": "string"
            },
            {
              "internalType": "string",
              "name": "title",
              "type": "string"
            },
            {
              "internalType": "string",
              "name": "description",
              "type": "string"
            },
            {
              "internalType": "string",
              "name": "imageUrl",
              "type": "string"
            },
            {
              "internalType": "uint256",
              "name": "timestamp",
              "type": "uint256"
            },
            {
              "internalType": "string",
              "name": "state",
              "type": "string"
            },
            {
              "internalType": "string",
              "name": "length",
              "type": "string"
            },
            {
              "internalType": "string",
              "name": "width",
              "type": "string"
            }
          ],
          "internalType": "struct ArtsChain.Artwork[]",
          "name": "",
          "type": "tuple[]"
        }
      ],
      "stateMutability": "view",
      "type": "function"
    },
    {
      "inputs": [],
      "name": "isRegistered",
      "outputs": [
        {
          "internalType": "bool",
          "name": "",
          "type": "bool"
        }
      ],
      "stateMutability": "view",
      "type": "function"
    },
    {
      "inputs": [
        {
          "internalType": "string",
          "name": "userName",
          "type": "string"
        }
      ],
      "name": "isUserNameExist",
      "outputs": [
        {
          "internalType": "bool",
          "name": "",
          "type": "bool"
        }
      ],
      "stateMutability": "view",
      "type": "function"
    },
    {
      "inputs": [],
      "name": "login",
      "outputs": [
        {
          "internalType": "string",
          "name": "",
          "type": "string"
        },
        {
          "internalType": "string",
          "name": "",
          "type": "string"
        }
      ],
      "stateMutability": "view",
      "type": "function"
    },
    {
      "inputs": [
        {
          "internalType": "string",
          "name": "username",
          "type": "string"
        },
        {
          "internalType": "string",
          "name": "firstName",
          "type": "string"
        },
        {
          "internalType": "string",
          "name": "lastName",
          "type": "string"
        }
      ],
      "name": "register",
      "outputs": [],
      "stateMutability": "nonpayable",
      "type": "function"
    },
    {
      "inputs": [
        {
          "internalType": "uint256",
          "name": "",
          "type": "uint256"
        }
      ],
      "name": "userAddresses",
      "outputs": [
        {
          "internalType": "address",
          "name": "",
          "type": "address"
        }
      ],
      "stateMutability": "view",
      "type": "function"
    },
    {
      "inputs": [
        {
          "internalType": "address",
          "name": "",
          "type": "address"
        }
      ],
      "name": "users",
      "outputs": [
        {
          "internalType": "string",
          "name": "username",
          "type": "string"
        },
        {
          "internalType": "string",
          "name": "firstName",
          "type": "string"
        },
        {
          "internalType": "string",
          "name": "lastName",
          "type": "string"
        },
        {
          "internalType": "string",
          "name": "role",
          "type": "string"
        },
        {
          "internalType": "uint256",
          "name": "artworkIdCounter",
          "type": "uint256"
        }
      ],
      "stateMutability": "view",
      "type": "function"
    }
  ],
  "bytecode": "0x608060405273e1d68d396f528ca22be259e3e5eba274c0b91a3e6000806101000a81548173ffffffffffffffffffffffffffffffffffffffff021916908373ffffffffffffffffffffffffffffffffffffffff1602179055503480156200006557600080fd5b506040518060400160405280600581526020017f5961687961000000000000000000000000000000000000000000000000000000815250600160008060009054906101000a900473ffffffffffffffffffffffffffffffffffffffff1673ffffffffffffffffffffffffffffffffffffffff1673ffffffffffffffffffffffffffffffffffffffff16815260200190815260200160002060000190816200010d9190620004b9565b506040518060400160405280600581526020017f41646d696e000000000000000000000000000000000000000000000000000000815250600160008060009054906101000a900473ffffffffffffffffffffffffffffffffffffffff1673ffffffffffffffffffffffffffffffffffffffff1673ffffffffffffffffffffffffffffffffffffffff1681526020019081526020016000206003019081620001b59190620004b9565b50600260008054906101000a900473ffffffffffffffffffffffffffffffffffffffff169080600181540180825580915050600190039060005260206000200160009091909190916101000a81548173ffffffffffffffffffffffffffffffffffffffff021916908373ffffffffffffffffffffffffffffffffffffffff160217905550620005a0565b600081519050919050565b7f4e487b7100000000000000000000000000000000000000000000000000000000600052604160045260246000fd5b7f4e487b7100000000000000000000000000000000000000000000000000000000600052602260045260246000fd5b60006002820490506001821680620002c157607f821691505b602082108103620002d757620002d662000279565b5b50919050565b60008190508160005260206000209050919050565b60006020601f8301049050919050565b600082821b905092915050565b600060088302620003417fffffffffffffffffffffffffffffffffffffffffffffffffffffffffffffffff8262000302565b6200034d868362000302565b95508019841693508086168417925050509392505050565b6000819050919050565b6000819050919050565b60006200039a620003946200038e8462000365565b6200036f565b62000365565b9050919050565b6000819050919050565b620003b68362000379565b620003ce620003c582620003a1565b8484546200030f565b825550505050565b600090565b620003e5620003d6565b620003f2818484620003ab565b505050565b5b818110156200041a576200040e600082620003db565b600181019050620003f8565b5050565b601f82111562000469576200043381620002dd565b6200043e84620002f2565b810160208510156200044e578190505b620004666200045d85620002f2565b830182620003f7565b50505b505050565b600082821c905092915050565b60006200048e600019846008026200046e565b1980831691505092915050565b6000620004a983836200047b565b9150826002028217905092915050565b620004c4826200023f565b67ffffffffffffffff811115620004e057620004df6200024a565b5b620004ec8254620002a8565b620004f98282856200041e565b600060209050601f8311600181146200053157600084156200051c578287015190505b6200052885826200049b565b86555062000598565b601f1984166200054186620002dd565b60005b828110156200056b5784890151825560018201915060208501945060208101905062000544565b868310156200058b578489015162000587601f8916826200047b565b8355505b6001600288020188555050505b505050505050565b61401080620005b06000396000f3fe608060405234801561001057600080fd5b50600436106100b45760003560e01c80636eaf2745116100715780636eaf27451461018d5780637069cdd1146101ab57806377c58557146101db5780639dfcf4b51461020b578063a87430ba1461023b578063b34e97e81461026f576100b4565b80630f64dd1b146100b957806322366844146100e95780633e59a5b6146101075780634cd08d0314610125578063502c9bd51461014157806361ee4e6214610171575b600080fd5b6100d360048036038101906100ce9190612eca565b61028e565b6040516100e09190612f2e565b60405180910390f35b6100f1610367565b6040516100fe9190612f2e565b60405180910390f35b61010f6103c0565b60405161011c9190613142565b60405180910390f35b61013f600480360381019061013a9190613164565b610ac3565b005b61015b60048036038101906101569190613237565b610d31565b6040516101689190613273565b60405180910390f35b61018b6004803603810190610186919061328e565b610d70565b005b61019561111e565b6040516101a29190613577565b60405180910390f35b6101c560048036038101906101c091906135c5565b61189a565b6040516101d2919061369a565b60405180910390f35b6101f560048036038101906101f09190612eca565b6119bd565b6040516102029190613142565b60405180910390f35b61022560048036038101906102209190612eca565b612058565b6040516102329190613142565b60405180910390f35b610255600480360381019061025091906136bc565b612690565b6040516102669594939291906136f8565b60405180910390f35b6102776128e6565b604051610285929190613767565b60405180910390f35b600080600090505b60028054905081101561035c57828051906020012060016000600284815481106102c3576102c261379e565b5b9060005260206000200160009054906101000a900473ffffffffffffffffffffffffffffffffffffffff1673ffffffffffffffffffffffffffffffffffffffff1673ffffffffffffffffffffffffffffffffffffffff16815260200190815260200160002060000160405161033891906138d0565b60405180910390200361034f576001915050610362565b8080600101915050610296565b50600090505b919050565b600080600160003373ffffffffffffffffffffffffffffffffffffffff1673ffffffffffffffffffffffffffffffffffffffff16815260200190815260200160002060000180546103b7906137fc565b90501415905090565b6103c8612cea565b6000600160003373ffffffffffffffffffffffffffffffffffffffff1673ffffffffffffffffffffffffffffffffffffffff1681526020019081526020016000206006015490506000600160003373ffffffffffffffffffffffffffffffffffffffff1673ffffffffffffffffffffffffffffffffffffffff1681526020019081526020016000206004016001836104609190613916565b815481106104715761047061379e565b5b906000526020600020018054610486906137fc565b80601f01602080910402602001604051908101604052809291908181526020018280546104b2906137fc565b80156104ff5780601f106104d4576101008083540402835291602001916104ff565b820191906000526020600020905b8154815290600101906020018083116104e257829003601f168201915b505050505090506000600160003373ffffffffffffffffffffffffffffffffffffffff1673ffffffffffffffffffffffffffffffffffffffff168152602001908152602001600020600501826040516105589190613986565b9081526020016040518091039020604051806101600160405290816000820160009054906101000a900473ffffffffffffffffffffffffffffffffffffffff1673ffffffffffffffffffffffffffffffffffffffff1673ffffffffffffffffffffffffffffffffffffffff1681526020016001820160009054906101000a900473ffffffffffffffffffffffffffffffffffffffff1673ffffffffffffffffffffffffffffffffffffffff1673ffffffffffffffffffffffffffffffffffffffff16815260200160028201805461062e906137fc565b80601f016020809104026020016040519081016040528092919081815260200182805461065a906137fc565b80156106a75780601f1061067c576101008083540402835291602001916106a7565b820191906000526020600020905b81548152906001019060200180831161068a57829003601f168201915b505050505081526020016003820180546106c0906137fc565b80601f01602080910402602001604051908101604052809291908181526020018280546106ec906137fc565b80156107395780601f1061070e57610100808354040283529160200191610739565b820191906000526020600020905b81548152906001019060200180831161071c57829003601f168201915b50505050508152602001600482018054610752906137fc565b80601f016020809104026020016040519081016040528092919081815260200182805461077e906137fc565b80156107cb5780601f106107a0576101008083540402835291602001916107cb565b820191906000526020600020905b8154815290600101906020018083116107ae57829003601f168201915b505050505081526020016005820180546107e4906137fc565b80601f0160208091040260200160405190810160405280929190818152602001828054610810906137fc565b801561085d5780601f106108325761010080835404028352916020019161085d565b820191906000526020600020905b81548152906001019060200180831161084057829003601f168201915b50505050508152602001600682018054610876906137fc565b80601f01602080910402602001604051908101604052809291908181526020018280546108a2906137fc565b80156108ef5780601f106108c4576101008083540402835291602001916108ef565b820191906000526020600020905b8154815290600101906020018083116108d257829003601f168201915b5050505050815260200160078201548152602001600882018054610912906137fc565b80601f016020809104026020016040519081016040528092919081815260200182805461093e906137fc565b801561098b5780601f106109605761010080835404028352916020019161098b565b820191906000526020600020905b81548152906001019060200180831161096e57829003601f168201915b505050505081526020016009820180546109a4906137fc565b80601f01602080910402602001604051908101604052809291908181526020018280546109d0906137fc565b8015610a1d5780601f106109f257610100808354040283529160200191610a1d565b820191906000526020600020905b815481529060010190602001808311610a0057829003601f168201915b50505050508152602001600a82018054610a36906137fc565b80601f0160208091040260200160405190810160405280929190818152602001828054610a62906137fc565b8015610aaf5780601f10610a8457610100808354040283529160200191610aaf565b820191906000526020600020905b815481529060010190602001808311610a9257829003601f168201915b505050505081525050905080935050505090565b6000600160003373ffffffffffffffffffffffffffffffffffffffff1673ffffffffffffffffffffffffffffffffffffffff1681526020019081526020016000206000018054610b12906137fc565b905014610b54576040517f08c379a0000000000000000000000000000000000000000000000000000000008152600401610b4b906139e9565b60405180910390fd5b82600160003373ffffffffffffffffffffffffffffffffffffffff1673ffffffffffffffffffffffffffffffffffffffff1681526020019081526020016000206000019081610ba39190613bb5565b5081600160003373ffffffffffffffffffffffffffffffffffffffff1673ffffffffffffffffffffffffffffffffffffffff1681526020019081526020016000206001019081610bf39190613bb5565b5080600160003373ffffffffffffffffffffffffffffffffffffffff1673ffffffffffffffffffffffffffffffffffffffff1681526020019081526020016000206002019081610c439190613bb5565b506040518060400160405280600681526020017f4172746973740000000000000000000000000000000000000000000000000000815250600160003373ffffffffffffffffffffffffffffffffffffffff1673ffffffffffffffffffffffffffffffffffffffff1681526020019081526020016000206003019081610cc89190613bb5565b506002339080600181540180825580915050600190039060005260206000200160009091909190916101000a81548173ffffffffffffffffffffffffffffffffffffffff021916908373ffffffffffffffffffffffffffffffffffffffff160217905550505050565b60028181548110610d4157600080fd5b906000526020600020016000915054906101000a900473ffffffffffffffffffffffffffffffffffffffff1681565b6000610d7d33878661189a565b90506000600160003373ffffffffffffffffffffffffffffffffffffffff1673ffffffffffffffffffffffffffffffffffffffff168152602001908152602001600020905060006040518061016001604052803373ffffffffffffffffffffffffffffffffffffffff1681526020013373ffffffffffffffffffffffffffffffffffffffff168152602001600160003373ffffffffffffffffffffffffffffffffffffffff1673ffffffffffffffffffffffffffffffffffffffff168152602001908152602001600020600101600160003373ffffffffffffffffffffffffffffffffffffffff1673ffffffffffffffffffffffffffffffffffffffff168152602001908152602001600020600201604051602001610e9d929190613d56565b60405160208183030381529060405281526020018481526020018981526020018881526020018781526020014281526020016040518060400160405280600781526020017f70726976617465000000000000000000000000000000000000000000000000008152508152602001868152602001858152509050808260050184604051610f299190613986565b908152602001604051809103902060008201518160000160006101000a81548173ffffffffffffffffffffffffffffffffffffffff021916908373ffffffffffffffffffffffffffffffffffffffff16021790555060208201518160010160006101000a81548173ffffffffffffffffffffffffffffffffffffffff021916908373ffffffffffffffffffffffffffffffffffffffff1602179055506040820151816002019081610fda9190613bb5565b506060820151816003019081610ff09190613bb5565b5060808201518160040190816110069190613bb5565b5060a082015181600501908161101c9190613bb5565b5060c08201518160060190816110329190613bb5565b5060e082015181600701556101008201518160080190816110539190613bb5565b5061012082015181600901908161106a9190613bb5565b5061014082015181600a0190816110819190613bb5565b5090505081600401839080600181540180825580915050600190039060005260206000200160009091909190915090816110bb9190613bb5565b50600160003373ffffffffffffffffffffffffffffffffffffffff1673ffffffffffffffffffffffffffffffffffffffff168152602001908152602001600020600601600081548092919061110f90613d85565b91905055505050505050505050565b60606000600160003373ffffffffffffffffffffffffffffffffffffffff1673ffffffffffffffffffffffffffffffffffffffff16815260200190815260200160002060060154905060008167ffffffffffffffff81111561118357611182612d9f565b5b6040519080825280602002602001820160405280156111bc57816020015b6111a9612cea565b8152602001906001900390816111a15790505b50905060005b82811015611891576000600160003373ffffffffffffffffffffffffffffffffffffffff1673ffffffffffffffffffffffffffffffffffffffff16815260200190815260200160002060040182815481106112205761121f61379e565b5b906000526020600020018054611235906137fc565b80601f0160208091040260200160405190810160405280929190818152602001828054611261906137fc565b80156112ae5780601f10611283576101008083540402835291602001916112ae565b820191906000526020600020905b81548152906001019060200180831161129157829003601f168201915b50505050509050600160003373ffffffffffffffffffffffffffffffffffffffff1673ffffffffffffffffffffffffffffffffffffffff168152602001908152602001600020600501816040516113059190613986565b9081526020016040518091039020604051806101600160405290816000820160009054906101000a900473ffffffffffffffffffffffffffffffffffffffff1673ffffffffffffffffffffffffffffffffffffffff1673ffffffffffffffffffffffffffffffffffffffff1681526020016001820160009054906101000a900473ffffffffffffffffffffffffffffffffffffffff1673ffffffffffffffffffffffffffffffffffffffff1673ffffffffffffffffffffffffffffffffffffffff1681526020016002820180546113db906137fc565b80601f0160208091040260200160405190810160405280929190818152602001828054611407906137fc565b80156114545780601f1061142957610100808354040283529160200191611454565b820191906000526020600020905b81548152906001019060200180831161143757829003601f168201915b5050505050815260200160038201805461146d906137fc565b80601f0160208091040260200160405190810160405280929190818152602001828054611499906137fc565b80156114e65780601f106114bb576101008083540402835291602001916114e6565b820191906000526020600020905b8154815290600101906020018083116114c957829003601f168201915b505050505081526020016004820180546114ff906137fc565b80601f016020809104026020016040519081016040528092919081815260200182805461152b906137fc565b80156115785780601f1061154d57610100808354040283529160200191611578565b820191906000526020600020905b81548152906001019060200180831161155b57829003601f168201915b50505050508152602001600582018054611591906137fc565b80601f01602080910402602001604051908101604052809291908181526020018280546115bd906137fc565b801561160a5780601f106115df5761010080835404028352916020019161160a565b820191906000526020600020905b8154815290600101906020018083116115ed57829003601f168201915b50505050508152602001600682018054611623906137fc565b80601f016020809104026020016040519081016040528092919081815260200182805461164f906137fc565b801561169c5780601f106116715761010080835404028352916020019161169c565b820191906000526020600020905b81548152906001019060200180831161167f57829003601f168201915b50505050508152602001600782015481526020016008820180546116bf906137fc565b80601f01602080910402602001604051908101604052809291908181526020018280546116eb906137fc565b80156117385780601f1061170d57610100808354040283529160200191611738565b820191906000526020600020905b81548152906001019060200180831161171b57829003601f168201915b50505050508152602001600982018054611751906137fc565b80601f016020809104026020016040519081016040528092919081815260200182805461177d906137fc565b80156117ca5780601f1061179f576101008083540402835291602001916117ca565b820191906000526020600020905b8154815290600101906020018083116117ad57829003601f168201915b50505050508152602001600a820180546117e3906137fc565b80601f016020809104026020016040519081016040528092919081815260200182805461180f906137fc565b801561185c5780601f106118315761010080835404028352916020019161185c565b820191906000526020600020905b81548152906001019060200180831161183f57829003601f168201915b5050505050815250508383815181106118785761187761379e565b5b60200260200101819052505080806001019150506111c2565b50809250505090565b606060008484846040516020016118b393929190613e15565b604051602081830303815290604052905060008180519060200120905060006118db82612b1e565b905060008190506000600867ffffffffffffffff8111156118ff576118fe612d9f565b5b6040519080825280601f01601f1916602001820160405280156119315781602001600182028036833780820191505090505b50905060005b60088110156119ad578281815181106119535761195261379e565b5b602001015160f81c60f81b8282815181106119715761197061379e565b5b60200101907effffffffffffffffffffffffffffffffffffffffffffffffffffffffffffff1916908160001a9053508080600101915050611937565b5080955050505050509392505050565b6119c5612cea565b60005b60028054905081101561201757600060016000600284815481106119ef576119ee61379e565b5b9060005260206000200160009054906101000a900473ffffffffffffffffffffffffffffffffffffffff1673ffffffffffffffffffffffffffffffffffffffff1673ffffffffffffffffffffffffffffffffffffffff16815260200190815260200160002060050184604051611a659190613986565b9081526020016040518091039020604051806101600160405290816000820160009054906101000a900473ffffffffffffffffffffffffffffffffffffffff1673ffffffffffffffffffffffffffffffffffffffff1673ffffffffffffffffffffffffffffffffffffffff1681526020016001820160009054906101000a900473ffffffffffffffffffffffffffffffffffffffff1673ffffffffffffffffffffffffffffffffffffffff1673ffffffffffffffffffffffffffffffffffffffff168152602001600282018054611b3b906137fc565b80601f0160208091040260200160405190810160405280929190818152602001828054611b67906137fc565b8015611bb45780601f10611b8957610100808354040283529160200191611bb4565b820191906000526020600020905b815481529060010190602001808311611b9757829003601f168201915b50505050508152602001600382018054611bcd906137fc565b80601f0160208091040260200160405190810160405280929190818152602001828054611bf9906137fc565b8015611c465780601f10611c1b57610100808354040283529160200191611c46565b820191906000526020600020905b815481529060010190602001808311611c2957829003601f168201915b50505050508152602001600482018054611c5f906137fc565b80601f0160208091040260200160405190810160405280929190818152602001828054611c8b906137fc565b8015611cd85780601f10611cad57610100808354040283529160200191611cd8565b820191906000526020600020905b815481529060010190602001808311611cbb57829003601f168201915b50505050508152602001600582018054611cf1906137fc565b80601f0160208091040260200160405190810160405280929190818152602001828054611d1d906137fc565b8015611d6a5780601f10611d3f57610100808354040283529160200191611d6a565b820191906000526020600020905b815481529060010190602001808311611d4d57829003601f168201915b50505050508152602001600682018054611d83906137fc565b80601f0160208091040260200160405190810160405280929190818152602001828054611daf906137fc565b8015611dfc5780601f10611dd157610100808354040283529160200191611dfc565b820191906000526020600020905b815481529060010190602001808311611ddf57829003601f168201915b5050505050815260200160078201548152602001600882018054611e1f906137fc565b80601f0160208091040260200160405190810160405280929190818152602001828054611e4b906137fc565b8015611e985780601f10611e6d57610100808354040283529160200191611e98565b820191906000526020600020905b815481529060010190602001808311611e7b57829003601f168201915b50505050508152602001600982018054611eb1906137fc565b80601f0160208091040260200160405190810160405280929190818152602001828054611edd906137fc565b8015611f2a5780601f10611eff57610100808354040283529160200191611f2a565b820191906000526020600020905b815481529060010190602001808311611f0d57829003601f168201915b50505050508152602001600a82018054611f43906137fc565b80601f0160208091040260200160405190810160405280929190818152602001828054611f6f906137fc565b8015611fbc5780601f10611f9157610100808354040283529160200191611fbc565b820191906000526020600020905b815481529060010190602001808311611f9f57829003601f168201915b5050505050815250509050600073ffffffffffffffffffffffffffffffffffffffff16816000015173ffffffffffffffffffffffffffffffffffffffff1614612009578092505050612053565b5080806001019150506119c8565b506040517f08c379a000000000000000000000000000000000000000000000000000000000815260040161204a90613e96565b60405180910390fd5b919050565b612060612cea565b6000600160003373ffffffffffffffffffffffffffffffffffffffff1673ffffffffffffffffffffffffffffffffffffffff168152602001908152602001600020600501836040516120b29190613986565b9081526020016040518091039020604051806101600160405290816000820160009054906101000a900473ffffffffffffffffffffffffffffffffffffffff1673ffffffffffffffffffffffffffffffffffffffff1673ffffffffffffffffffffffffffffffffffffffff1681526020016001820160009054906101000a900473ffffffffffffffffffffffffffffffffffffffff1673ffffffffffffffffffffffffffffffffffffffff1673ffffffffffffffffffffffffffffffffffffffff168152602001600282018054612188906137fc565b80601f01602080910402602001604051908101604052809291908181526020018280546121b4906137fc565b80156122015780601f106121d657610100808354040283529160200191612201565b820191906000526020600020905b8154815290600101906020018083116121e457829003601f168201915b5050505050815260200160038201805461221a906137fc565b80601f0160208091040260200160405190810160405280929190818152602001828054612246906137fc565b80156122935780601f1061226857610100808354040283529160200191612293565b820191906000526020600020905b81548152906001019060200180831161227657829003601f168201915b505050505081526020016004820180546122ac906137fc565b80601f01602080910402602001604051908101604052809291908181526020018280546122d8906137fc565b80156123255780601f106122fa57610100808354040283529160200191612325565b820191906000526020600020905b81548152906001019060200180831161230857829003601f168201915b5050505050815260200160058201805461233e906137fc565b80601f016020809104026020016040519081016040528092919081815260200182805461236a906137fc565b80156123b75780601f1061238c576101008083540402835291602001916123b7565b820191906000526020600020905b81548152906001019060200180831161239a57829003601f168201915b505050505081526020016006820180546123d0906137fc565b80601f01602080910402602001604051908101604052809291908181526020018280546123fc906137fc565b80156124495780601f1061241e57610100808354040283529160200191612449565b820191906000526020600020905b81548152906001019060200180831161242c57829003601f168201915b505050505081526020016007820154815260200160088201805461246c906137fc565b80601f0160208091040260200160405190810160405280929190818152602001828054612498906137fc565b80156124e55780601f106124ba576101008083540402835291602001916124e5565b820191906000526020600020905b8154815290600101906020018083116124c857829003601f168201915b505050505081526020016009820180546124fe906137fc565b80601f016020809104026020016040519081016040528092919081815260200182805461252a906137fc565b80156125775780601f1061254c57610100808354040283529160200191612577565b820191906000526020600020905b81548152906001019060200180831161255a57829003601f168201915b50505050508152602001600a82018054612590906137fc565b80601f01602080910402602001604051908101604052809291908181526020018280546125bc906137fc565b80156126095780601f106125de57610100808354040283529160200191612609565b820191906000526020600020905b8154815290600101906020018083116125ec57829003601f168201915b5050505050815250509050600073ffffffffffffffffffffffffffffffffffffffff16816000015173ffffffffffffffffffffffffffffffffffffffff1603612687576040517f08c379a000000000000000000000000000000000000000000000000000000000815260040161267e90613e96565b60405180910390fd5b80915050919050565b60016020528060005260406000206000915090508060000180546126b3906137fc565b80601f01602080910402602001604051908101604052809291908181526020018280546126df906137fc565b801561272c5780601f106127015761010080835404028352916020019161272c565b820191906000526020600020905b81548152906001019060200180831161270f57829003601f168201915b505050505090806001018054612741906137fc565b80601f016020809104026020016040519081016040528092919081815260200182805461276d906137fc565b80156127ba5780601f1061278f576101008083540402835291602001916127ba565b820191906000526020600020905b81548152906001019060200180831161279d57829003601f168201915b5050505050908060020180546127cf906137fc565b80601f01602080910402602001604051908101604052809291908181526020018280546127fb906137fc565b80156128485780601f1061281d57610100808354040283529160200191612848565b820191906000526020600020905b81548152906001019060200180831161282b57829003601f168201915b50505050509080600301805461285d906137fc565b80601f0160208091040260200160405190810160405280929190818152602001828054612889906137fc565b80156128d65780601f106128ab576101008083540402835291602001916128d6565b820191906000526020600020905b8154815290600101906020018083116128b957829003601f168201915b5050505050908060060154905085565b6060806000600160003373ffffffffffffffffffffffffffffffffffffffff1673ffffffffffffffffffffffffffffffffffffffff1681526020019081526020016000206000018054612938906137fc565b90500361297a576040517f08c379a000000000000000000000000000000000000000000000000000000000815260040161297190613f02565b60405180910390fd5b600160003373ffffffffffffffffffffffffffffffffffffffff1673ffffffffffffffffffffffffffffffffffffffff168152602001908152602001600020600001600160003373ffffffffffffffffffffffffffffffffffffffff1673ffffffffffffffffffffffffffffffffffffffff168152602001908152602001600020600301818054612a0a906137fc565b80601f0160208091040260200160405190810160405280929190818152602001828054612a36906137fc565b8015612a835780601f10612a5857610100808354040283529160200191612a83565b820191906000526020600020905b815481529060010190602001808311612a6657829003601f168201915b50505050509150808054612a96906137fc565b80601f0160208091040260200160405190810160405280929190818152602001828054612ac2906137fc565b8015612b0f5780601f10612ae457610100808354040283529160200191612b0f565b820191906000526020600020905b815481529060010190602001808311612af257829003601f168201915b50505050509050915091509091565b60606000604067ffffffffffffffff811115612b3d57612b3c612d9f565b5b6040519080825280601f01601f191660200182016040528015612b6f5781602001600182028036833780820191505090505b50905060005b6020811015612ca357612bc66004858360208110612b9657612b9561379e565b5b1a60f81b7effffffffffffffffffffffffffffffffffffffffffffffffffffffffffffff1916901c60f81c612cad565b82826002612bd49190613f22565b81518110612be557612be461379e565b5b60200101907effffffffffffffffffffffffffffffffffffffffffffffffffffffffffffff1916908160001a905350612c3c600f60f81b858360208110612c2f57612c2e61379e565b5b1a60f81b1660f81c612cad565b826001836002612c4c9190613f22565b612c569190613f64565b81518110612c6757612c6661379e565b5b60200101907effffffffffffffffffffffffffffffffffffffffffffffffffffffffffffff1916908160001a9053508080600101915050612b75565b5080915050919050565b6000600a8260ff161015612cd257603082612cc89190613fa5565b60f81b9050612ce5565b605782612cdf9190613fa5565b60f81b90505b919050565b604051806101600160405280600073ffffffffffffffffffffffffffffffffffffffff168152602001600073ffffffffffffffffffffffffffffffffffffffff1681526020016060815260200160608152602001606081526020016060815260200160608152602001600081526020016060815260200160608152602001606081525090565b6000604051905090565b600080fd5b600080fd5b600080fd5b600080fd5b6000601f19601f8301169050919050565b7f4e487b7100000000000000000000000000000000000000000000000000000000600052604160045260246000fd5b612dd782612d8e565b810181811067ffffffffffffffff82111715612df657612df5612d9f565b5b80604052505050565b6000612e09612d70565b9050612e158282612dce565b919050565b600067ffffffffffffffff821115612e3557612e34612d9f565b5b612e3e82612d8e565b9050602081019050919050565b82818337600083830152505050565b6000612e6d612e6884612e1a565b612dff565b905082815260208101848484011115612e8957612e88612d89565b5b612e94848285612e4b565b509392505050565b600082601f830112612eb157612eb0612d84565b5b8135612ec1848260208601612e5a565b91505092915050565b600060208284031215612ee057612edf612d7a565b5b600082013567ffffffffffffffff811115612efe57612efd612d7f565b5b612f0a84828501612e9c565b91505092915050565b60008115159050919050565b612f2881612f13565b82525050565b6000602082019050612f436000830184612f1f565b92915050565b600073ffffffffffffffffffffffffffffffffffffffff82169050919050565b6000612f7482612f49565b9050919050565b612f8481612f69565b82525050565b600081519050919050565b600082825260208201905092915050565b60005b83811015612fc4578082015181840152602081019050612fa9565b60008484015250505050565b6000612fdb82612f8a565b612fe58185612f95565b9350612ff5818560208601612fa6565b612ffe81612d8e565b840191505092915050565b6000819050919050565b61301c81613009565b82525050565b60006101608301600083015161303b6000860182612f7b565b50602083015161304e6020860182612f7b565b50604083015184820360408601526130668282612fd0565b915050606083015184820360608601526130808282612fd0565b9150506080830151848203608086015261309a8282612fd0565b91505060a083015184820360a08601526130b48282612fd0565b91505060c083015184820360c08601526130ce8282612fd0565b91505060e08301516130e360e0860182613013565b506101008301518482036101008601526130fd8282612fd0565b9150506101208301518482036101208601526131198282612fd0565b9150506101408301518482036101408601526131358282612fd0565b9150508091505092915050565b6000602082019050818103600083015261315c8184613022565b905092915050565b60008060006060848603121561317d5761317c612d7a565b5b600084013567ffffffffffffffff81111561319b5761319a612d7f565b5b6131a786828701612e9c565b935050602084013567ffffffffffffffff8111156131c8576131c7612d7f565b5b6131d486828701612e9c565b925050604084013567ffffffffffffffff8111156131f5576131f4612d7f565b5b61320186828701612e9c565b9150509250925092565b61321481613009565b811461321f57600080fd5b50565b6000813590506132318161320b565b92915050565b60006020828403121561324d5761324c612d7a565b5b600061325b84828501613222565b91505092915050565b61326d81612f69565b82525050565b60006020820190506132886000830184613264565b92915050565b600080600080600060a086880312156132aa576132a9612d7a565b5b600086013567ffffffffffffffff8111156132c8576132c7612d7f565b5b6132d488828901612e9c565b955050602086013567ffffffffffffffff8111156132f5576132f4612d7f565b5b61330188828901612e9c565b945050604086013567ffffffffffffffff81111561332257613321612d7f565b5b61332e88828901612e9c565b935050606086013567ffffffffffffffff81111561334f5761334e612d7f565b5b61335b88828901612e9c565b925050608086013567ffffffffffffffff81111561337c5761337b612d7f565b5b61338888828901612e9c565b9150509295509295909350565b600081519050919050565b600082825260208201905092915050565b6000819050602082019050919050565b6000610160830160008301516133da6000860182612f7b565b5060208301516133ed6020860182612f7b565b50604083015184820360408601526134058282612fd0565b9150506060830151848203606086015261341f8282612fd0565b915050608083015184820360808601526134398282612fd0565b91505060a083015184820360a08601526134538282612fd0565b91505060c083015184820360c086015261346d8282612fd0565b91505060e083015161348260e0860182613013565b5061010083015184820361010086015261349c8282612fd0565b9150506101208301518482036101208601526134b88282612fd0565b9150506101408301518482036101408601526134d48282612fd0565b9150508091505092915050565b60006134ed83836133c1565b905092915050565b6000602082019050919050565b600061350d82613395565b61351781856133a0565b935083602082028501613529856133b1565b8060005b85811015613565578484038952815161354685826134e1565b9450613551836134f5565b925060208a0199505060018101905061352d565b50829750879550505050505092915050565b600060208201905081810360008301526135918184613502565b905092915050565b6135a281612f69565b81146135ad57600080fd5b50565b6000813590506135bf81613599565b92915050565b6000806000606084860312156135de576135dd612d7a565b5b60006135ec868287016135b0565b935050602084013567ffffffffffffffff81111561360d5761360c612d7f565b5b61361986828701612e9c565b925050604084013567ffffffffffffffff81111561363a57613639612d7f565b5b61364686828701612e9c565b9150509250925092565b600082825260208201905092915050565b600061366c82612f8a565b6136768185613650565b9350613686818560208601612fa6565b61368f81612d8e565b840191505092915050565b600060208201905081810360008301526136b48184613661565b905092915050565b6000602082840312156136d2576136d1612d7a565b5b60006136e0848285016135b0565b91505092915050565b6136f281613009565b82525050565b600060a08201905081810360008301526137128188613661565b905081810360208301526137268187613661565b9050818103604083015261373a8186613661565b9050818103606083015261374e8185613661565b905061375d60808301846136e9565b9695505050505050565b600060408201905081810360008301526137818185613661565b905081810360208301526137958184613661565b90509392505050565b7f4e487b7100000000000000000000000000000000000000000000000000000000600052603260045260246000fd5b7f4e487b7100000000000000000000000000000000000000000000000000000000600052602260045260246000fd5b6000600282049050600182168061381457607f821691505b602082108103613827576138266137cd565b5b50919050565b600081905092915050565b60008190508160005260206000209050919050565b6000815461385a816137fc565b613864818661382d565b9450600182166000811461387f5760018114613894576138c7565b60ff19831686528115158202860193506138c7565b61389d85613838565b60005b838110156138bf578154818901526001820191506020810190506138a0565b838801955050505b50505092915050565b60006138dc828461384d565b915081905092915050565b7f4e487b7100000000000000000000000000000000000000000000000000000000600052601160045260246000fd5b600061392182613009565b915061392c83613009565b9250828203905081811115613944576139436138e7565b5b92915050565b600081905092915050565b600061396082612f8a565b61396a818561394a565b935061397a818560208601612fa6565b80840191505092915050565b60006139928284613955565b915081905092915050565b7f4163636f756e7420616c72656164792065786973747300000000000000000000600082015250565b60006139d3601683613650565b91506139de8261399d565b602082019050919050565b60006020820190508181036000830152613a02816139c6565b9050919050565b60008190508160005260206000209050919050565b60006020601f8301049050919050565b600082821b905092915050565b600060088302613a6b7fffffffffffffffffffffffffffffffffffffffffffffffffffffffffffffffff82613a2e565b613a758683613a2e565b95508019841693508086168417925050509392505050565b6000819050919050565b6000613ab2613aad613aa884613009565b613a8d565b613009565b9050919050565b6000819050919050565b613acc83613a97565b613ae0613ad882613ab9565b848454613a3b565b825550505050565b600090565b613af5613ae8565b613b00818484613ac3565b505050565b5b81811015613b2457613b19600082613aed565b600181019050613b06565b5050565b601f821115613b6957613b3a81613a09565b613b4384613a1e565b81016020851015613b52578190505b613b66613b5e85613a1e565b830182613b05565b50505b505050565b600082821c905092915050565b6000613b8c60001984600802613b6e565b1980831691505092915050565b6000613ba58383613b7b565b9150826002028217905092915050565b613bbe82612f8a565b67ffffffffffffffff811115613bd757613bd6612d9f565b5b613be182546137fc565b613bec828285613b28565b600060209050601f831160018114613c1f5760008415613c0d578287015190505b613c178582613b99565b865550613c7f565b601f198416613c2d86613a09565b60005b82811015613c5557848901518255600182019150602085019450602081019050613c30565b86831015613c725784890151613c6e601f891682613b7b565b8355505b6001600288020188555050505b505050505050565b60008154613c94816137fc565b613c9e818661394a565b94506001821660008114613cb95760018114613cce57613d01565b60ff1983168652811515820286019350613d01565b613cd785613a09565b60005b83811015613cf957815481890152600182019150602081019050613cda565b838801955050505b50505092915050565b7f2000000000000000000000000000000000000000000000000000000000000000600082015250565b6000613d4060018361394a565b9150613d4b82613d0a565b600182019050919050565b6000613d628285613c87565b9150613d6d82613d33565b9150613d798284613c87565b91508190509392505050565b6000613d9082613009565b91507fffffffffffffffffffffffffffffffffffffffffffffffffffffffffffffffff8203613dc257613dc16138e7565b5b600182019050919050565b60008160601b9050919050565b6000613de582613dcd565b9050919050565b6000613df782613dda565b9050919050565b613e0f613e0a82612f69565b613dec565b82525050565b6000613e218286613dfe565b601482019150613e318285613955565b9150613e3d8284613955565b9150819050949350505050565b7f417274776f726b20646f6573206e6f7420657869737400000000000000000000600082015250565b6000613e80601683613650565b9150613e8b82613e4a565b602082019050919050565b60006020820190508181036000830152613eaf81613e73565b9050919050565b7f4163636f756e7420646f6573206e6f7420657869737400000000000000000000600082015250565b6000613eec601683613650565b9150613ef782613eb6565b602082019050919050565b60006020820190508181036000830152613f1b81613edf565b9050919050565b6000613f2d82613009565b9150613f3883613009565b9250828202613f4681613009565b91508282048414831517613f5d57613f5c6138e7565b5b5092915050565b6000613f6f82613009565b9150613f7a83613009565b9250828201905080821115613f9257613f916138e7565b5b92915050565b600060ff82169050919050565b6000613fb082613f98565b9150613fbb83613f98565b9250828201905060ff811115613fd457613fd36138e7565b5b9291505056fea26469706673582212203bdb0968fb0e835ea5433af06cbfc45e9f3ba18b134e988f941e913434dbf26564736f6c63430008180033",
  "linkReferences": {},
  "deployedLinkReferences": {}
}